{
  "_format": "hh-sol-artifact-1",
  "contractName": "CrossChain",
  "sourceName": "contracts/CrossChain.sol",
  "abi": [
    {
      "inputs": [
        {
          "internalType": "address",
          "name": "_wormhole",
          "type": "address"
        }
      ],
      "stateMutability": "nonpayable",
      "type": "constructor"
    },
    {
      "inputs": [],
      "name": "getMessageFee",
      "outputs": [
        {
          "internalType": "uint256",
          "name": "",
          "type": "uint256"
        }
      ],
      "stateMutability": "view",
      "type": "function"
    },
    {
      "inputs": [
        {
          "internalType": "bytes",
          "name": "_ideas_votes_id",
          "type": "bytes"
        },
        {
          "internalType": "uint64",
          "name": "_goal_id",
          "type": "uint64"
        },
        {
          "internalType": "uint64",
          "name": "_ideas_id",
          "type": "uint64"
        },
        {
          "internalType": "string",
          "name": "_wallet",
          "type": "string"
        }
      ],
      "name": "sendVAA",
      "outputs": [
        {
          "internalType": "uint64",
          "name": "messageSequence",
          "type": "uint64"
        }
      ],
      "stateMutability": "payable",
      "type": "function"
    },
    {
      "inputs": [],
      "name": "wormhole",
      "outputs": [
        {
          "internalType": "contract IWormhole",
          "name": "",
          "type": "address"
        }
      ],
      "stateMutability": "view",
      "type": "function"
    }
  ],
  "bytecode": "0x60a060405234801561001057600080fd5b50604051610b68380380610b68833981810160405281019061003291906100cf565b8073ffffffffffffffffffffffffffffffffffffffff1660808173ffffffffffffffffffffffffffffffffffffffff1681525050506100fc565b600080fd5b600073ffffffffffffffffffffffffffffffffffffffff82169050919050565b600061009c82610071565b9050919050565b6100ac81610091565b81146100b757600080fd5b50565b6000815190506100c9816100a3565b92915050565b6000602082840312156100e5576100e461006c565b5b60006100f3848285016100ba565b91505092915050565b608051610a3d61012b6000396000818160c3015281816101570152818161017e015261026c0152610a3d6000f3fe6080604052600436106100345760003560e01c80634316dcd31461003957806384acd1bb146100645780639bac9fef1461008f575b600080fd5b34801561004557600080fd5b5061004e6100bf565b60405161005b9190610333565b60405180910390f35b34801561007057600080fd5b50610079610155565b60405161008691906103cd565b60405180910390f35b6100a960048036038101906100a49190610623565b610179565b6040516100b691906106d1565b60405180910390f35b60007f000000000000000000000000000000000000000000000000000000000000000073ffffffffffffffffffffffffffffffffffffffff16631a90a2196040518163ffffffff1660e01b8152600401602060405180830381865afa15801561012c573d6000803e3d6000fd5b505050506040513d601f19601f820116820180604052508101906101509190610718565b905090565b7f000000000000000000000000000000000000000000000000000000000000000081565b6000807f000000000000000000000000000000000000000000000000000000000000000073ffffffffffffffffffffffffffffffffffffffff16631a90a2196040518163ffffffff1660e01b8152600401602060405180830381865afa1580156101e7573d6000803e3d6000fd5b505050506040513d601f19601f8201168201806040525081019061020b9190610718565b9050600060405180608001604052808881526020018767ffffffffffffffff1681526020018667ffffffffffffffff1681526020018581525090506000816040516020016102599190610892565b60405160208183030381529060405290507f000000000000000000000000000000000000000000000000000000000000000073ffffffffffffffffffffffffffffffffffffffff1663b19a437e8460008460006040518563ffffffff1660e01b81526004016102ca93929190610987565b60206040518083038185885af11580156102e8573d6000803e3d6000fd5b50505050506040513d601f19601f8201168201806040525081019061030d91906109da565b9350505050949350505050565b6000819050919050565b61032d8161031a565b82525050565b60006020820190506103486000830184610324565b92915050565b600073ffffffffffffffffffffffffffffffffffffffff82169050919050565b6000819050919050565b600061039361038e6103898461034e565b61036e565b61034e565b9050919050565b60006103a582610378565b9050919050565b60006103b78261039a565b9050919050565b6103c7816103ac565b82525050565b60006020820190506103e260008301846103be565b92915050565b6000604051905090565b600080fd5b600080fd5b600080fd5b600080fd5b6000601f19601f8301169050919050565b7f4e487b7100000000000000000000000000000000000000000000000000000000600052604160045260246000fd5b61044f82610406565b810181811067ffffffffffffffff8211171561046e5761046d610417565b5b80604052505050565b60006104816103e8565b905061048d8282610446565b919050565b600067ffffffffffffffff8211156104ad576104ac610417565b5b6104b682610406565b9050602081019050919050565b82818337600083830152505050565b60006104e56104e084610492565b610477565b90508281526020810184848401111561050157610500610401565b5b61050c8482856104c3565b509392505050565b600082601f830112610529576105286103fc565b5b81356105398482602086016104d2565b91505092915050565b600067ffffffffffffffff82169050919050565b61055f81610542565b811461056a57600080fd5b50565b60008135905061057c81610556565b92915050565b600067ffffffffffffffff82111561059d5761059c610417565b5b6105a682610406565b9050602081019050919050565b60006105c66105c184610582565b610477565b9050828152602081018484840111156105e2576105e1610401565b5b6105ed8482856104c3565b509392505050565b600082601f83011261060a576106096103fc565b5b813561061a8482602086016105b3565b91505092915050565b6000806000806080858703121561063d5761063c6103f2565b5b600085013567ffffffffffffffff81111561065b5761065a6103f7565b5b61066787828801610514565b94505060206106788782880161056d565b93505060406106898782880161056d565b925050606085013567ffffffffffffffff8111156106aa576106a96103f7565b5b6106b6878288016105f5565b91505092959194509250565b6106cb81610542565b82525050565b60006020820190506106e660008301846106c2565b92915050565b6106f58161031a565b811461070057600080fd5b50565b600081519050610712816106ec565b92915050565b60006020828403121561072e5761072d6103f2565b5b600061073c84828501610703565b91505092915050565b600081519050919050565b600082825260208201905092915050565b60005b8381101561077f578082015181840152602081019050610764565b60008484015250505050565b600061079682610745565b6107a08185610750565b93506107b0818560208601610761565b6107b981610406565b840191505092915050565b6107cd81610542565b82525050565b600081519050919050565b600082825260208201905092915050565b60006107fa826107d3565b61080481856107de565b9350610814818560208601610761565b61081d81610406565b840191505092915050565b60006080830160008301518482036000860152610845828261078b565b915050602083015161085a60208601826107c4565b50604083015161086d60408601826107c4565b506060830151848203606086015261088582826107ef565b9150508091505092915050565b600060208201905081810360008301526108ac8184610828565b905092915050565b6000819050919050565b600063ffffffff82169050919050565b60006108e96108e46108df846108b4565b61036e565b6108be565b9050919050565b6108f9816108ce565b82525050565b600082825260208201905092915050565b600061091b82610745565b61092581856108ff565b9350610935818560208601610761565b61093e81610406565b840191505092915050565b600060ff82169050919050565b600061097161096c610967846108b4565b61036e565b610949565b9050919050565b61098181610956565b82525050565b600060608201905061099c60008301866108f0565b81810360208301526109ae8185610910565b90506109bd6040830184610978565b949350505050565b6000815190506109d481610556565b92915050565b6000602082840312156109f0576109ef6103f2565b5b60006109fe848285016109c5565b9150509291505056fea264697066735822122026e8108a6265c7c29aaa1a90d8541bfe0d70be675079634401b46d2b618e3b9264736f6c63430008110033",
  "linkReferences": {},
  "deployedLinkReferences": {}
}